{
  "_format": "hh-sol-artifact-1",
  "contractName": "MKNFT",
  "sourceName": "contracts/MKNFT.sol",
  "abi": [
    {
      "inputs": [],
      "stateMutability": "payable",
      "type": "constructor"
    },
    {
      "anonymous": false,
      "inputs": [
        {
          "indexed": true,
          "internalType": "address",
          "name": "owner",
          "type": "address"
        },
        {
          "indexed": true,
          "internalType": "address",
          "name": "approved",
          "type": "address"
        },
        {
          "indexed": true,
          "internalType": "uint256",
          "name": "tokenId",
          "type": "uint256"
        }
      ],
      "name": "Approval",
      "type": "event"
    },
    {
      "anonymous": false,
      "inputs": [
        {
          "indexed": true,
          "internalType": "address",
          "name": "owner",
          "type": "address"
        },
        {
          "indexed": true,
          "internalType": "address",
          "name": "operator",
          "type": "address"
        },
        {
          "indexed": false,
          "internalType": "bool",
          "name": "approved",
          "type": "bool"
        }
      ],
      "name": "ApprovalForAll",
      "type": "event"
    },
    {
      "anonymous": false,
      "inputs": [
        {
          "indexed": true,
          "internalType": "address",
          "name": "previousOwner",
          "type": "address"
        },
        {
          "indexed": true,
          "internalType": "address",
          "name": "newOwner",
          "type": "address"
        }
      ],
      "name": "OwnershipTransferred",
      "type": "event"
    },
    {
      "anonymous": false,
      "inputs": [
        {
          "indexed": true,
          "internalType": "address",
          "name": "from",
          "type": "address"
        },
        {
          "indexed": true,
          "internalType": "address",
          "name": "to",
          "type": "address"
        },
        {
          "indexed": true,
          "internalType": "uint256",
          "name": "tokenId",
          "type": "uint256"
        }
      ],
      "name": "Transfer",
      "type": "event"
    },
    {
      "inputs": [],
      "name": "MAX_SUPPLY",
      "outputs": [
        {
          "internalType": "uint256",
          "name": "",
          "type": "uint256"
        }
      ],
      "stateMutability": "view",
      "type": "function"
    },
    {
      "inputs": [],
      "name": "MINT_REWARD",
      "outputs": [
        {
          "internalType": "uint256",
          "name": "",
          "type": "uint256"
        }
      ],
      "stateMutability": "view",
      "type": "function"
    },
    {
      "inputs": [
        {
          "internalType": "address",
          "name": "to",
          "type": "address"
        },
        {
          "internalType": "uint256",
          "name": "tokenId",
          "type": "uint256"
        }
      ],
      "name": "approve",
      "outputs": [],
      "stateMutability": "nonpayable",
      "type": "function"
    },
    {
      "inputs": [
        {
          "internalType": "address",
          "name": "owner",
          "type": "address"
        }
      ],
      "name": "balanceOf",
      "outputs": [
        {
          "internalType": "uint256",
          "name": "",
          "type": "uint256"
        }
      ],
      "stateMutability": "view",
      "type": "function"
    },
    {
      "inputs": [
        {
          "internalType": "uint256",
          "name": "tokenId",
          "type": "uint256"
        }
      ],
      "name": "getApproved",
      "outputs": [
        {
          "internalType": "address",
          "name": "",
          "type": "address"
        }
      ],
      "stateMutability": "view",
      "type": "function"
    },
    {
      "inputs": [
        {
          "internalType": "address",
          "name": "owner",
          "type": "address"
        },
        {
          "internalType": "address",
          "name": "operator",
          "type": "address"
        }
      ],
      "name": "isApprovedForAll",
      "outputs": [
        {
          "internalType": "bool",
          "name": "",
          "type": "bool"
        }
      ],
      "stateMutability": "view",
      "type": "function"
    },
    {
      "inputs": [],
      "name": "name",
      "outputs": [
        {
          "internalType": "string",
          "name": "",
          "type": "string"
        }
      ],
      "stateMutability": "view",
      "type": "function"
    },
    {
      "inputs": [],
      "name": "owner",
      "outputs": [
        {
          "internalType": "address",
          "name": "",
          "type": "address"
        }
      ],
      "stateMutability": "view",
      "type": "function"
    },
    {
      "inputs": [
        {
          "internalType": "uint256",
          "name": "tokenId",
          "type": "uint256"
        }
      ],
      "name": "ownerOf",
      "outputs": [
        {
          "internalType": "address",
          "name": "",
          "type": "address"
        }
      ],
      "stateMutability": "view",
      "type": "function"
    },
    {
      "inputs": [],
      "name": "renounceOwnership",
      "outputs": [],
      "stateMutability": "nonpayable",
      "type": "function"
    },
    {
      "inputs": [
        {
          "internalType": "address",
          "name": "to",
          "type": "address"
        },
        {
          "internalType": "string",
          "name": "uri",
          "type": "string"
        }
      ],
      "name": "safeMint",
      "outputs": [],
      "stateMutability": "nonpayable",
      "type": "function"
    },
    {
      "inputs": [
        {
          "internalType": "address",
          "name": "from",
          "type": "address"
        },
        {
          "internalType": "address",
          "name": "to",
          "type": "address"
        },
        {
          "internalType": "uint256",
          "name": "tokenId",
          "type": "uint256"
        }
      ],
      "name": "safeTransferFrom",
      "outputs": [],
      "stateMutability": "nonpayable",
      "type": "function"
    },
    {
      "inputs": [
        {
          "internalType": "address",
          "name": "from",
          "type": "address"
        },
        {
          "internalType": "address",
          "name": "to",
          "type": "address"
        },
        {
          "internalType": "uint256",
          "name": "tokenId",
          "type": "uint256"
        },
        {
          "internalType": "bytes",
          "name": "data",
          "type": "bytes"
        }
      ],
      "name": "safeTransferFrom",
      "outputs": [],
      "stateMutability": "nonpayable",
      "type": "function"
    },
    {
      "inputs": [
        {
          "internalType": "address",
          "name": "operator",
          "type": "address"
        },
        {
          "internalType": "bool",
          "name": "approved",
          "type": "bool"
        }
      ],
      "name": "setApprovalForAll",
      "outputs": [],
      "stateMutability": "nonpayable",
      "type": "function"
    },
    {
      "inputs": [
        {
          "internalType": "bytes4",
          "name": "interfaceId",
          "type": "bytes4"
        }
      ],
      "name": "supportsInterface",
      "outputs": [
        {
          "internalType": "bool",
          "name": "",
          "type": "bool"
        }
      ],
      "stateMutability": "view",
      "type": "function"
    },
    {
      "inputs": [],
      "name": "symbol",
      "outputs": [
        {
          "internalType": "string",
          "name": "",
          "type": "string"
        }
      ],
      "stateMutability": "view",
      "type": "function"
    },
    {
      "inputs": [
        {
          "internalType": "uint256",
          "name": "index",
          "type": "uint256"
        }
      ],
      "name": "tokenByIndex",
      "outputs": [
        {
          "internalType": "uint256",
          "name": "",
          "type": "uint256"
        }
      ],
      "stateMutability": "view",
      "type": "function"
    },
    {
      "inputs": [
        {
          "internalType": "address",
          "name": "owner",
          "type": "address"
        },
        {
          "internalType": "uint256",
          "name": "index",
          "type": "uint256"
        }
      ],
      "name": "tokenOfOwnerByIndex",
      "outputs": [
        {
          "internalType": "uint256",
          "name": "",
          "type": "uint256"
        }
      ],
      "stateMutability": "view",
      "type": "function"
    },
    {
      "inputs": [
        {
          "internalType": "uint256",
          "name": "tokenId",
          "type": "uint256"
        }
      ],
      "name": "tokenURI",
      "outputs": [
        {
          "internalType": "string",
          "name": "",
          "type": "string"
        }
      ],
      "stateMutability": "view",
      "type": "function"
    },
    {
      "inputs": [],
      "name": "totalSupply",
      "outputs": [
        {
          "internalType": "uint256",
          "name": "",
          "type": "uint256"
        }
      ],
      "stateMutability": "view",
      "type": "function"
    },
    {
      "inputs": [
        {
          "internalType": "address",
          "name": "from",
          "type": "address"
        },
        {
          "internalType": "address",
          "name": "to",
          "type": "address"
        },
        {
          "internalType": "uint256",
          "name": "tokenId",
          "type": "uint256"
        }
      ],
      "name": "transferFrom",
      "outputs": [],
      "stateMutability": "nonpayable",
      "type": "function"
    },
    {
      "inputs": [
        {
          "internalType": "address",
          "name": "newOwner",
          "type": "address"
        }
      ],
      "name": "transferOwnership",
      "outputs": [],
      "stateMutability": "nonpayable",
      "type": "function"
    },
    {
      "inputs": [],
      "name": "withdrawPayments",
      "outputs": [],
      "stateMutability": "nonpayable",
      "type": "function"
    }
  ],
  "bytecode": "0x60806040526040518060400160405280600581526020017f4d4b4e46540000000000000000000000000000000000000000000000000000008152506040518060400160405280600581526020017f4d4b4e4654000000000000000000000000000000000000000000000000000000815250816000908051906020019062000088929190620001c5565b508060019080519060200190620000a1929190620001c5565b505050620000c4620000b8620000e160201b60201c565b620000e960201b60201c565b620000db600c620001af60201b62000d471760201c565b620002da565b600033905090565b6000600b60009054906101000a900473ffffffffffffffffffffffffffffffffffffffff16905081600b60006101000a81548173ffffffffffffffffffffffffffffffffffffffff021916908373ffffffffffffffffffffffffffffffffffffffff1602179055508173ffffffffffffffffffffffffffffffffffffffff168173ffffffffffffffffffffffffffffffffffffffff167f8be0079c531659141344cd1fd0a4f28419497f9722a3daafe3b4186f6b6457e060405160405180910390a35050565b6001816000016000828254019250508190555050565b828054620001d39062000275565b90600052602060002090601f016020900481019282620001f7576000855562000243565b82601f106200021257805160ff191683800117855562000243565b8280016001018555821562000243579182015b828111156200024257825182559160200191906001019062000225565b5b50905062000252919062000256565b5090565b5b808211156200027157600081600090555060010162000257565b5090565b600060028204905060018216806200028e57607f821691505b60208210811415620002a557620002a4620002ab565b5b50919050565b7f4e487b7100000000000000000000000000000000000000000000000000000000600052602260045260246000fd5b61390680620002ea6000396000f3fe608060405234801561001057600080fd5b506004361061014d5760003560e01c80636103d70b116100c3578063a22cb4651161007c578063a22cb4651461038e578063b88d4fde146103aa578063c87b56dd146103c6578063d204c45e146103f6578063e985e9c514610412578063f2fde38b146104425761014d565b80636103d70b146102de5780636352211e146102e857806370a0823114610318578063715018a6146103485780638da5cb5b1461035257806395d89b41146103705761014d565b806323b872dd1161011557806323b872dd1461020a5780632f745c591461022657806332cb6b0c1461025657806342842e0e146102745780634f3114d3146102905780634f6ccce7146102ae5761014d565b806301ffc9a71461015257806306fdde0314610182578063081812fc146101a0578063095ea7b3146101d057806318160ddd146101ec575b600080fd5b61016c600480360381019061016791906127e3565b61045e565b6040516101799190612cad565b60405180910390f35b61018a610470565b6040516101979190612cc8565b60405180910390f35b6101ba60048036038101906101b59190612835565b610502565b6040516101c79190612c46565b60405180910390f35b6101ea60048036038101906101e591906127a7565b610548565b005b6101f4610660565b6040516102019190612f6a565b60405180910390f35b610224600480360381019061021f919061264d565b61066d565b005b610240600480360381019061023b91906127a7565b6106cd565b60405161024d9190612f6a565b60405180910390f35b61025e610772565b60405161026b9190612f6a565b60405180910390f35b61028e6004803603810190610289919061264d565b610779565b005b610298610799565b6040516102a59190612f6a565b60405180910390f35b6102c860048036038101906102c39190612835565b6107a4565b6040516102d59190612f6a565b60405180910390f35b6102e661083b565b005b61030260048036038101906102fd9190612835565b610893565b60405161030f9190612c46565b60405180910390f35b610332600480360381019061032d91906125e8565b610945565b60405161033f9190612f6a565b60405180910390f35b6103506109fd565b005b61035a610a11565b6040516103679190612c46565b60405180910390f35b610378610a3b565b6040516103859190612cc8565b60405180910390f35b6103a860048036038101906103a39190612717565b610acd565b005b6103c460048036038101906103bf919061269c565b610ae3565b005b6103e060048036038101906103db9190612835565b610b45565b6040516103ed9190612cc8565b60405180910390f35b610410600480360381019061040b9190612753565b610b57565b005b61042c60048036038101906104279190612611565b610c2f565b6040516104399190612cad565b60405180910390f35b61045c600480360381019061045791906125e8565b610cc3565b005b600061046982610d5d565b9050919050565b60606000805461047f906131cb565b80601f01602080910402602001604051908101604052809291908181526020018280546104ab906131cb565b80156104f85780601f106104cd576101008083540402835291602001916104f8565b820191906000526020600020905b8154815290600101906020018083116104db57829003601f168201915b5050505050905090565b600061050d82610dd7565b6004600083815260200190815260200160002060009054906101000a900473ffffffffffffffffffffffffffffffffffffffff169050919050565b600061055382610893565b90508073ffffffffffffffffffffffffffffffffffffffff168373ffffffffffffffffffffffffffffffffffffffff1614156105c4576040517f08c379a00000000000000000000000000000000000000000000000000000000081526004016105bb90612eea565b60405180910390fd5b8073ffffffffffffffffffffffffffffffffffffffff166105e3610e22565b73ffffffffffffffffffffffffffffffffffffffff16148061061257506106118161060c610e22565b610c2f565b5b610651576040517f08c379a000000000000000000000000000000000000000000000000000000000815260040161064890612e6a565b60405180910390fd5b61065b8383610e2a565b505050565b6000600880549050905090565b61067e610678610e22565b82610ee3565b6106bd576040517f08c379a00000000000000000000000000000000000000000000000000000000081526004016106b490612f4a565b60405180910390fd5b6106c8838383610f78565b505050565b60006106d883610945565b8210610719576040517f08c379a000000000000000000000000000000000000000000000000000000000815260040161071090612cea565b60405180910390fd5b600660008473ffffffffffffffffffffffffffffffffffffffff1673ffffffffffffffffffffffffffffffffffffffff168152602001908152602001600020600083815260200190815260200160002054905092915050565b620f424081565b61079483838360405180602001604052806000815250610ae3565b505050565b66038d7ea4c6800081565b60006107ae610660565b82106107ef576040517f08c379a00000000000000000000000000000000000000000000000000000000081526004016107e690612f2a565b60405180910390fd5b60088281548110610829577f4e487b7100000000000000000000000000000000000000000000000000000000600052603260045260246000fd5b90600052602060002001549050919050565b6108436111df565b61084b610a11565b73ffffffffffffffffffffffffffffffffffffffff166108fc479081150290604051600060405180830381858888f19350505050158015610890573d6000803e3d6000fd5b50565b6000806002600084815260200190815260200160002060009054906101000a900473ffffffffffffffffffffffffffffffffffffffff169050600073ffffffffffffffffffffffffffffffffffffffff168173ffffffffffffffffffffffffffffffffffffffff16141561093c576040517f08c379a000000000000000000000000000000000000000000000000000000000815260040161093390612eca565b60405180910390fd5b80915050919050565b60008073ffffffffffffffffffffffffffffffffffffffff168273ffffffffffffffffffffffffffffffffffffffff1614156109b6576040517f08c379a00000000000000000000000000000000000000000000000000000000081526004016109ad90612e0a565b60405180910390fd5b600360008373ffffffffffffffffffffffffffffffffffffffff1673ffffffffffffffffffffffffffffffffffffffff168152602001908152602001600020549050919050565b610a056111df565b610a0f600061125d565b565b6000600b60009054906101000a900473ffffffffffffffffffffffffffffffffffffffff16905090565b606060018054610a4a906131cb565b80601f0160208091040260200160405190810160405280929190818152602001828054610a76906131cb565b8015610ac35780601f10610a9857610100808354040283529160200191610ac3565b820191906000526020600020905b815481529060010190602001808311610aa657829003601f168201915b5050505050905090565b610adf610ad8610e22565b8383611323565b5050565b610af4610aee610e22565b83610ee3565b610b33576040517f08c379a0000000000000000000000000000000000000000000000000000000008152600401610b2a90612f4a565b60405180910390fd5b610b3f84848484611490565b50505050565b6060610b50826114ec565b9050919050565b66038d7ea4c68000471015610ba1576040517f08c379a0000000000000000000000000000000000000000000000000000000008152600401610b9890612e2a565b60405180910390fd5b620f4240610bad610660565b10610bed576040517f08c379a0000000000000000000000000000000000000000000000000000000008152600401610be490612f0a565b60405180910390fd5b6000610bf9600c6115ff565b9050610c05600c610d47565b610c0f838261160d565b610c19818361162b565b610c2a3366038d7ea4c6800061169f565b505050565b6000600560008473ffffffffffffffffffffffffffffffffffffffff1673ffffffffffffffffffffffffffffffffffffffff16815260200190815260200160002060008373ffffffffffffffffffffffffffffffffffffffff1673ffffffffffffffffffffffffffffffffffffffff16815260200190815260200160002060009054906101000a900460ff16905092915050565b610ccb6111df565b600073ffffffffffffffffffffffffffffffffffffffff168173ffffffffffffffffffffffffffffffffffffffff161415610d3b576040517f08c379a0000000000000000000000000000000000000000000000000000000008152600401610d3290612d2a565b60405180910390fd5b610d448161125d565b50565b6001816000016000828254019250508190555050565b60007f780e9d63000000000000000000000000000000000000000000000000000000007bffffffffffffffffffffffffffffffffffffffffffffffffffffffff1916827bffffffffffffffffffffffffffffffffffffffffffffffffffffffff19161480610dd05750610dcf82611793565b5b9050919050565b610de081611875565b610e1f576040517f08c379a0000000000000000000000000000000000000000000000000000000008152600401610e1690612eca565b60405180910390fd5b50565b600033905090565b816004600083815260200190815260200160002060006101000a81548173ffffffffffffffffffffffffffffffffffffffff021916908373ffffffffffffffffffffffffffffffffffffffff160217905550808273ffffffffffffffffffffffffffffffffffffffff16610e9d83610893565b73ffffffffffffffffffffffffffffffffffffffff167f8c5be1e5ebec7d5bd14f71427d1e84f3dd0314c0f7b2291e5b200ac8c7c3b92560405160405180910390a45050565b600080610eef83610893565b90508073ffffffffffffffffffffffffffffffffffffffff168473ffffffffffffffffffffffffffffffffffffffff161480610f315750610f308185610c2f565b5b80610f6f57508373ffffffffffffffffffffffffffffffffffffffff16610f5784610502565b73ffffffffffffffffffffffffffffffffffffffff16145b91505092915050565b8273ffffffffffffffffffffffffffffffffffffffff16610f9882610893565b73ffffffffffffffffffffffffffffffffffffffff1614610fee576040517f08c379a0000000000000000000000000000000000000000000000000000000008152600401610fe590612d4a565b60405180910390fd5b600073ffffffffffffffffffffffffffffffffffffffff168273ffffffffffffffffffffffffffffffffffffffff16141561105e576040517f08c379a000000000000000000000000000000000000000000000000000000000815260040161105590612d8a565b60405180910390fd5b6110698383836118e1565b611074600082610e2a565b6001600360008573ffffffffffffffffffffffffffffffffffffffff1673ffffffffffffffffffffffffffffffffffffffff16815260200190815260200160002060008282546110c491906130e1565b925050819055506001600360008473ffffffffffffffffffffffffffffffffffffffff1673ffffffffffffffffffffffffffffffffffffffff168152602001908152602001600020600082825461111b919061305a565b92505081905550816002600083815260200190815260200160002060006101000a81548173ffffffffffffffffffffffffffffffffffffffff021916908373ffffffffffffffffffffffffffffffffffffffff160217905550808273ffffffffffffffffffffffffffffffffffffffff168473ffffffffffffffffffffffffffffffffffffffff167fddf252ad1be2c89b69c2b068fc378daa952ba7f163c4a11628f55a4df523b3ef60405160405180910390a46111da8383836118f1565b505050565b6111e7610e22565b73ffffffffffffffffffffffffffffffffffffffff16611205610a11565b73ffffffffffffffffffffffffffffffffffffffff161461125b576040517f08c379a000000000000000000000000000000000000000000000000000000000815260040161125290612eaa565b60405180910390fd5b565b6000600b60009054906101000a900473ffffffffffffffffffffffffffffffffffffffff16905081600b60006101000a81548173ffffffffffffffffffffffffffffffffffffffff021916908373ffffffffffffffffffffffffffffffffffffffff1602179055508173ffffffffffffffffffffffffffffffffffffffff168173ffffffffffffffffffffffffffffffffffffffff167f8be0079c531659141344cd1fd0a4f28419497f9722a3daafe3b4186f6b6457e060405160405180910390a35050565b8173ffffffffffffffffffffffffffffffffffffffff168373ffffffffffffffffffffffffffffffffffffffff161415611392576040517f08c379a000000000000000000000000000000000000000000000000000000000815260040161138990612daa565b60405180910390fd5b80600560008573ffffffffffffffffffffffffffffffffffffffff1673ffffffffffffffffffffffffffffffffffffffff16815260200190815260200160002060008473ffffffffffffffffffffffffffffffffffffffff1673ffffffffffffffffffffffffffffffffffffffff16815260200190815260200160002060006101000a81548160ff0219169083151502179055508173ffffffffffffffffffffffffffffffffffffffff168373ffffffffffffffffffffffffffffffffffffffff167f17307eab39ab6107e8899845ad3d59bd9653f200f220920489ca2b5937696c31836040516114839190612cad565b60405180910390a3505050565b61149b848484610f78565b6114a7848484846118f6565b6114e6576040517f08c379a00000000000000000000000000000000000000000000000000000000081526004016114dd90612d0a565b60405180910390fd5b50505050565b60606114f782610dd7565b6000600a60008481526020019081526020016000208054611517906131cb565b80601f0160208091040260200160405190810160405280929190818152602001828054611543906131cb565b80156115905780601f1061156557610100808354040283529160200191611590565b820191906000526020600020905b81548152906001019060200180831161157357829003601f168201915b5050505050905060006115a1611a8d565b90506000815114156115b75781925050506115fa565b6000825111156115ec5780826040516020016115d4929190612c0d565b604051602081830303815290604052925050506115fa565b6115f584611aa4565b925050505b919050565b600081600001549050919050565b611627828260405180602001604052806000815250611b0c565b5050565b61163482611875565b611673576040517f08c379a000000000000000000000000000000000000000000000000000000000815260040161166a90612e4a565b60405180910390fd5b80600a6000848152602001908152602001600020908051906020019061169a92919061240c565b505050565b804710156116e2576040517f08c379a00000000000000000000000000000000000000000000000000000000081526004016116d990612dea565b60405180910390fd5b60008273ffffffffffffffffffffffffffffffffffffffff168260405161170890612c31565b60006040518083038185875af1925050503d8060008114611745576040519150601f19603f3d011682016040523d82523d6000602084013e61174a565b606091505b505090508061178e576040517f08c379a000000000000000000000000000000000000000000000000000000000815260040161178590612dca565b60405180910390fd5b505050565b60007f80ac58cd000000000000000000000000000000000000000000000000000000007bffffffffffffffffffffffffffffffffffffffffffffffffffffffff1916827bffffffffffffffffffffffffffffffffffffffffffffffffffffffff1916148061185e57507f5b5e139f000000000000000000000000000000000000000000000000000000007bffffffffffffffffffffffffffffffffffffffffffffffffffffffff1916827bffffffffffffffffffffffffffffffffffffffffffffffffffffffff1916145b8061186e575061186d82611b67565b5b9050919050565b60008073ffffffffffffffffffffffffffffffffffffffff166002600084815260200190815260200160002060009054906101000a900473ffffffffffffffffffffffffffffffffffffffff1673ffffffffffffffffffffffffffffffffffffffff1614159050919050565b6118ec838383611bd1565b505050565b505050565b60006119178473ffffffffffffffffffffffffffffffffffffffff16611ce5565b15611a80578373ffffffffffffffffffffffffffffffffffffffff1663150b7a02611940610e22565b8786866040518563ffffffff1660e01b81526004016119629493929190612c61565b602060405180830381600087803b15801561197c57600080fd5b505af19250505080156119ad57506040513d601f19601f820116820180604052508101906119aa919061280c565b60015b611a30573d80600081146119dd576040519150601f19603f3d011682016040523d82523d6000602084013e6119e2565b606091505b50600081511415611a28576040517f08c379a0000000000000000000000000000000000000000000000000000000008152600401611a1f90612d0a565b60405180910390fd5b805181602001fd5b63150b7a0260e01b7bffffffffffffffffffffffffffffffffffffffffffffffffffffffff1916817bffffffffffffffffffffffffffffffffffffffffffffffffffffffff191614915050611a85565b600190505b949350505050565b606060405180602001604052806000815250905090565b6060611aaf82610dd7565b6000611ab9611a8d565b90506000815111611ad95760405180602001604052806000815250611b04565b80611ae384611d08565b604051602001611af4929190612c0d565b6040516020818303038152906040525b915050919050565b611b168383611eb5565b611b2360008484846118f6565b611b62576040517f08c379a0000000000000000000000000000000000000000000000000000000008152600401611b5990612d0a565b60405180910390fd5b505050565b60007f01ffc9a7000000000000000000000000000000000000000000000000000000007bffffffffffffffffffffffffffffffffffffffffffffffffffffffff1916827bffffffffffffffffffffffffffffffffffffffffffffffffffffffff1916149050919050565b611bdc83838361208f565b600073ffffffffffffffffffffffffffffffffffffffff168373ffffffffffffffffffffffffffffffffffffffff161415611c1f57611c1a81612094565b611c5e565b8173ffffffffffffffffffffffffffffffffffffffff168373ffffffffffffffffffffffffffffffffffffffff1614611c5d57611c5c83826120dd565b5b5b600073ffffffffffffffffffffffffffffffffffffffff168273ffffffffffffffffffffffffffffffffffffffff161415611ca157611c9c8161224a565b611ce0565b8273ffffffffffffffffffffffffffffffffffffffff168273ffffffffffffffffffffffffffffffffffffffff1614611cdf57611cde828261238d565b5b5b505050565b6000808273ffffffffffffffffffffffffffffffffffffffff163b119050919050565b60606000821415611d50576040518060400160405280600181526020017f30000000000000000000000000000000000000000000000000000000000000008152509050611eb0565b600082905060005b60008214611d82578080611d6b9061322e565b915050600a82611d7b91906130b0565b9150611d58565b60008167ffffffffffffffff811115611dc4577f4e487b7100000000000000000000000000000000000000000000000000000000600052604160045260246000fd5b6040519080825280601f01601f191660200182016040528015611df65781602001600182028036833780820191505090505b5090505b60008514611ea957600182611e0f91906130e1565b9150600a85611e1e9190613277565b6030611e2a919061305a565b60f81b818381518110611e66577f4e487b7100000000000000000000000000000000000000000000000000000000600052603260045260246000fd5b60200101907effffffffffffffffffffffffffffffffffffffffffffffffffffffffffffff1916908160001a905350600a85611ea291906130b0565b9450611dfa565b8093505050505b919050565b600073ffffffffffffffffffffffffffffffffffffffff168273ffffffffffffffffffffffffffffffffffffffff161415611f25576040517f08c379a0000000000000000000000000000000000000000000000000000000008152600401611f1c90612e8a565b60405180910390fd5b611f2e81611875565b15611f6e576040517f08c379a0000000000000000000000000000000000000000000000000000000008152600401611f6590612d6a565b60405180910390fd5b611f7a600083836118e1565b6001600360008473ffffffffffffffffffffffffffffffffffffffff1673ffffffffffffffffffffffffffffffffffffffff1681526020019081526020016000206000828254611fca919061305a565b92505081905550816002600083815260200190815260200160002060006101000a81548173ffffffffffffffffffffffffffffffffffffffff021916908373ffffffffffffffffffffffffffffffffffffffff160217905550808273ffffffffffffffffffffffffffffffffffffffff16600073ffffffffffffffffffffffffffffffffffffffff167fddf252ad1be2c89b69c2b068fc378daa952ba7f163c4a11628f55a4df523b3ef60405160405180910390a461208b600083836118f1565b5050565b505050565b6008805490506009600083815260200190815260200160002081905550600881908060018154018082558091505060019003906000526020600020016000909190919091505550565b600060016120ea84610945565b6120f491906130e1565b90506000600760008481526020019081526020016000205490508181146121d9576000600660008673ffffffffffffffffffffffffffffffffffffffff1673ffffffffffffffffffffffffffffffffffffffff168152602001908152602001600020600084815260200190815260200160002054905080600660008773ffffffffffffffffffffffffffffffffffffffff1673ffffffffffffffffffffffffffffffffffffffff168152602001908152602001600020600084815260200190815260200160002081905550816007600083815260200190815260200160002081905550505b6007600084815260200190815260200160002060009055600660008573ffffffffffffffffffffffffffffffffffffffff1673ffffffffffffffffffffffffffffffffffffffff16815260200190815260200160002060008381526020019081526020016000206000905550505050565b6000600160088054905061225e91906130e1565b90506000600960008481526020019081526020016000205490506000600883815481106122b4577f4e487b7100000000000000000000000000000000000000000000000000000000600052603260045260246000fd5b9060005260206000200154905080600883815481106122fc577f4e487b7100000000000000000000000000000000000000000000000000000000600052603260045260246000fd5b906000526020600020018190555081600960008381526020019081526020016000208190555060096000858152602001908152602001600020600090556008805480612371577f4e487b7100000000000000000000000000000000000000000000000000000000600052603160045260246000fd5b6001900381819060005260206000200160009055905550505050565b600061239883610945565b905081600660008573ffffffffffffffffffffffffffffffffffffffff1673ffffffffffffffffffffffffffffffffffffffff168152602001908152602001600020600083815260200190815260200160002081905550806007600084815260200190815260200160002081905550505050565b828054612418906131cb565b90600052602060002090601f01602090048101928261243a5760008555612481565b82601f1061245357805160ff1916838001178555612481565b82800160010185558215612481579182015b82811115612480578251825591602001919060010190612465565b5b50905061248e9190612492565b5090565b5b808211156124ab576000816000905550600101612493565b5090565b60006124c26124bd84612faa565b612f85565b9050828152602081018484840111156124da57600080fd5b6124e5848285613189565b509392505050565b60006125006124fb84612fdb565b612f85565b90508281526020810184848401111561251857600080fd5b612523848285613189565b509392505050565b60008135905061253a81613874565b92915050565b60008135905061254f8161388b565b92915050565b600081359050612564816138a2565b92915050565b600081519050612579816138a2565b92915050565b600082601f83011261259057600080fd5b81356125a08482602086016124af565b91505092915050565b600082601f8301126125ba57600080fd5b81356125ca8482602086016124ed565b91505092915050565b6000813590506125e2816138b9565b92915050565b6000602082840312156125fa57600080fd5b60006126088482850161252b565b91505092915050565b6000806040838503121561262457600080fd5b60006126328582860161252b565b92505060206126438582860161252b565b9150509250929050565b60008060006060848603121561266257600080fd5b60006126708682870161252b565b93505060206126818682870161252b565b9250506040612692868287016125d3565b9150509250925092565b600080600080608085870312156126b257600080fd5b60006126c08782880161252b565b94505060206126d18782880161252b565b93505060406126e2878288016125d3565b925050606085013567ffffffffffffffff8111156126ff57600080fd5b61270b8782880161257f565b91505092959194509250565b6000806040838503121561272a57600080fd5b60006127388582860161252b565b925050602061274985828601612540565b9150509250929050565b6000806040838503121561276657600080fd5b60006127748582860161252b565b925050602083013567ffffffffffffffff81111561279157600080fd5b61279d858286016125a9565b9150509250929050565b600080604083850312156127ba57600080fd5b60006127c88582860161252b565b92505060206127d9858286016125d3565b9150509250929050565b6000602082840312156127f557600080fd5b600061280384828501612555565b91505092915050565b60006020828403121561281e57600080fd5b600061282c8482850161256a565b91505092915050565b60006020828403121561284757600080fd5b6000612855848285016125d3565b91505092915050565b61286781613115565b82525050565b61287681613127565b82525050565b60006128878261300c565b6128918185613022565b93506128a1818560208601613198565b6128aa81613364565b840191505092915050565b60006128c082613017565b6128ca818561303e565b93506128da818560208601613198565b6128e381613364565b840191505092915050565b60006128f982613017565b612903818561304f565b9350612913818560208601613198565b80840191505092915050565b600061292c602b8361303e565b915061293782613375565b604082019050919050565b600061294f60328361303e565b915061295a826133c4565b604082019050919050565b600061297260268361303e565b915061297d82613413565b604082019050919050565b600061299560258361303e565b91506129a082613462565b604082019050919050565b60006129b8601c8361303e565b91506129c3826134b1565b602082019050919050565b60006129db60248361303e565b91506129e6826134da565b604082019050919050565b60006129fe60198361303e565b9150612a0982613529565b602082019050919050565b6000612a21603a8361303e565b9150612a2c82613552565b604082019050919050565b6000612a44601d8361303e565b9150612a4f826135a1565b602082019050919050565b6000612a6760298361303e565b9150612a72826135ca565b604082019050919050565b6000612a8a60198361303e565b9150612a9582613619565b602082019050919050565b6000612aad602e8361303e565b9150612ab882613642565b604082019050919050565b6000612ad0603e8361303e565b9150612adb82613691565b604082019050919050565b6000612af360208361303e565b9150612afe826136e0565b602082019050919050565b6000612b1660208361303e565b9150612b2182613709565b602082019050919050565b6000612b3960188361303e565b9150612b4482613732565b602082019050919050565b6000612b5c60218361303e565b9150612b678261375b565b604082019050919050565b6000612b7f600083613033565b9150612b8a826137aa565b600082019050919050565b6000612ba260128361303e565b9150612bad826137ad565b602082019050919050565b6000612bc5602c8361303e565b9150612bd0826137d6565b604082019050919050565b6000612be8602e8361303e565b9150612bf382613825565b604082019050919050565b612c078161317f565b82525050565b6000612c1982856128ee565b9150612c2582846128ee565b91508190509392505050565b6000612c3c82612b72565b9150819050919050565b6000602082019050612c5b600083018461285e565b92915050565b6000608082019050612c76600083018761285e565b612c83602083018661285e565b612c906040830185612bfe565b8181036060830152612ca2818461287c565b905095945050505050565b6000602082019050612cc2600083018461286d565b92915050565b60006020820190508181036000830152612ce281846128b5565b905092915050565b60006020820190508181036000830152612d038161291f565b9050919050565b60006020820190508181036000830152612d2381612942565b9050919050565b60006020820190508181036000830152612d4381612965565b9050919050565b60006020820190508181036000830152612d6381612988565b9050919050565b60006020820190508181036000830152612d83816129ab565b9050919050565b60006020820190508181036000830152612da3816129ce565b9050919050565b60006020820190508181036000830152612dc3816129f1565b9050919050565b60006020820190508181036000830152612de381612a14565b9050919050565b60006020820190508181036000830152612e0381612a37565b9050919050565b60006020820190508181036000830152612e2381612a5a565b9050919050565b60006020820190508181036000830152612e4381612a7d565b9050919050565b60006020820190508181036000830152612e6381612aa0565b9050919050565b60006020820190508181036000830152612e8381612ac3565b9050919050565b60006020820190508181036000830152612ea381612ae6565b9050919050565b60006020820190508181036000830152612ec381612b09565b9050919050565b60006020820190508181036000830152612ee381612b2c565b9050919050565b60006020820190508181036000830152612f0381612b4f565b9050919050565b60006020820190508181036000830152612f2381612b95565b9050919050565b60006020820190508181036000830152612f4381612bb8565b9050919050565b60006020820190508181036000830152612f6381612bdb565b9050919050565b6000602082019050612f7f6000830184612bfe565b92915050565b6000612f8f612fa0565b9050612f9b82826131fd565b919050565b6000604051905090565b600067ffffffffffffffff821115612fc557612fc4613335565b5b612fce82613364565b9050602081019050919050565b600067ffffffffffffffff821115612ff657612ff5613335565b5b612fff82613364565b9050602081019050919050565b600081519050919050565b600081519050919050565b600082825260208201905092915050565b600081905092915050565b600082825260208201905092915050565b600081905092915050565b60006130658261317f565b91506130708361317f565b9250827fffffffffffffffffffffffffffffffffffffffffffffffffffffffffffffffff038211156130a5576130a46132a8565b5b828201905092915050565b60006130bb8261317f565b91506130c68361317f565b9250826130d6576130d56132d7565b5b828204905092915050565b60006130ec8261317f565b91506130f78361317f565b92508282101561310a576131096132a8565b5b828203905092915050565b60006131208261315f565b9050919050565b60008115159050919050565b60007fffffffff0000000000000000000000000000000000000000000000000000000082169050919050565b600073ffffffffffffffffffffffffffffffffffffffff82169050919050565b6000819050919050565b82818337600083830152505050565b60005b838110156131b657808201518184015260208101905061319b565b838111156131c5576000848401525b50505050565b600060028204905060018216806131e357607f821691505b602082108114156131f7576131f6613306565b5b50919050565b61320682613364565b810181811067ffffffffffffffff8211171561322557613224613335565b5b80604052505050565b60006132398261317f565b91507fffffffffffffffffffffffffffffffffffffffffffffffffffffffffffffffff82141561326c5761326b6132a8565b5b600182019050919050565b60006132828261317f565b915061328d8361317f565b92508261329d5761329c6132d7565b5b828206905092915050565b7f4e487b7100000000000000000000000000000000000000000000000000000000600052601160045260246000fd5b7f4e487b7100000000000000000000000000000000000000000000000000000000600052601260045260246000fd5b7f4e487b7100000000000000000000000000000000000000000000000000000000600052602260045260246000fd5b7f4e487b7100000000000000000000000000000000000000000000000000000000600052604160045260246000fd5b6000601f19601f8301169050919050565b7f455243373231456e756d657261626c653a206f776e657220696e646578206f7560008201527f74206f6620626f756e6473000000000000000000000000000000000000000000602082015250565b7f4552433732313a207472616e7366657220746f206e6f6e20455243373231526560008201527f63656976657220696d706c656d656e7465720000000000000000000000000000602082015250565b7f4f776e61626c653a206e6577206f776e657220697320746865207a65726f206160008201527f6464726573730000000000000000000000000000000000000000000000000000602082015250565b7f4552433732313a207472616e736665722066726f6d20696e636f72726563742060008201527f6f776e6572000000000000000000000000000000000000000000000000000000602082015250565b7f4552433732313a20746f6b656e20616c7265616479206d696e74656400000000600082015250565b7f4552433732313a207472616e7366657220746f20746865207a65726f2061646460008201527f7265737300000000000000000000000000000000000000000000000000000000602082015250565b7f4552433732313a20617070726f766520746f2063616c6c657200000000000000600082015250565b7f416464726573733a20756e61626c6520746f2073656e642076616c75652c207260008201527f6563697069656e74206d61792068617665207265766572746564000000000000602082015250565b7f416464726573733a20696e73756666696369656e742062616c616e6365000000600082015250565b7f4552433732313a2061646472657373207a65726f206973206e6f74206120766160008201527f6c6964206f776e65720000000000000000000000000000000000000000000000602082015250565b7f576520617265206f7574206f66204554482c20736f7272792100000000000000600082015250565b7f45524337323155524953746f726167653a2055524920736574206f66206e6f6e60008201527f6578697374656e7420746f6b656e000000000000000000000000000000000000602082015250565b7f4552433732313a20617070726f76652063616c6c6572206973206e6f7420746f60008201527f6b656e206f776e6572206e6f7220617070726f76656420666f7220616c6c0000602082015250565b7f4552433732313a206d696e7420746f20746865207a65726f2061646472657373600082015250565b7f4f776e61626c653a2063616c6c6572206973206e6f7420746865206f776e6572600082015250565b7f4552433732313a20696e76616c696420746f6b656e2049440000000000000000600082015250565b7f4552433732313a20617070726f76616c20746f2063757272656e74206f776e6560008201527f7200000000000000000000000000000000000000000000000000000000000000602082015250565b50565b7f4d617820737570706c7920726561636865640000000000000000000000000000600082015250565b7f455243373231456e756d657261626c653a20676c6f62616c20696e646578206f60008201527f7574206f6620626f756e64730000000000000000000000000000000000000000602082015250565b7f4552433732313a2063616c6c6572206973206e6f7420746f6b656e206f776e6560008201527f72206e6f7220617070726f766564000000000000000000000000000000000000602082015250565b61387d81613115565b811461388857600080fd5b50565b61389481613127565b811461389f57600080fd5b50565b6138ab81613133565b81146138b657600080fd5b50565b6138c28161317f565b81146138cd57600080fd5b5056fea26469706673582212207689fa402a98a49f2f763f3ee1c20f9e4e6cf68b9dbebb29f8b03ba00a187eac64736f6c63430008040033",
  "linkReferences": {},
  "deployedLinkReferences": {}
}